:100000000DEF0EF00400120004EF10F070EC0EF093
:10001000FF0000F000F012000CEF10F018EF00F0FD
:10003000000EF26E000EFC6EB4EC0EF00400CDEC7F
:1000400008F0F0EC0DF0C7EC0EF05FEC04F0F6D722
:1008000000B9080708640834034D006900630072EA
:10081000006F0063006800690070002000540065EC
:1008200000630068006E006F006C006F0067007965
:1008300000200049006E0063002E0009022900011B
:1008400001008032090400000203000000092111A8
:10085000010001221D000705810340000107050179
:1008600003400001260348004900440020005500D1
:1008700053004200200042006F006F0074006C00C3
:100880006F0061006400650072000600FF0901A1AD
:100890000119012940150026FF00750895408100C7
:1008A000190129409100C01201000200000008D87F
:1008B000043C0001010102000104030904003A5054
:1008C000060AD8B46DB2DDD22F66BCD204010CBFCB
:1008D000D8D20001000E4B6E0001600E4A6E536EBE
:1008E000400E4C6E535099EC0BF0536E010E2F6E70
:1008F0005350536E000E246E53500DD02450010DF2
:100900000001A10EF324D96E0001000EF420DA6E6E
:10091000000EDF6E242A3F0E2464F0D7B2D2040109
:1009200010BFAFD2536E020E00010001A16F5350F1
:10093000536E3A0E00010001A26F5350536E010E28
:1009400000010001A36F5350536E010E000100011E
:10095000A46F5350000E00010001A56F200E00018E
:10096000A66F000E0001A76F000E0001A86F000E19
:1009700000010001A96F600E0001AA6F000E0001C6
:10098000AB6F000E0001AC6F536E030E000100014F
:10099000AD6F5350000E00010001AE6F000E00015C
:1009A000AF6F300E0001B06F000E0001B16F0E0E80
:1009B00000010001B26F000E0001B36F000E0001D4
:1009C000B46F000E0001B56F536E040E00010001FC
:1009D000B66F5350000E00010001B76F000E00010A
:1009E000B86F200E0001B96F000E0001BA6F080E3B
:1009F00000010001BB6F000E0001BC6F000E000182
:100A0000BD6F000E0001BE6F00010001BF69536E93
:100A1000020E00010001BF6F5350000E00010001E3
:100A2000C06F000E0001C16FF00E0001C26F000E1A
:100A30000001C36F000E00010001C46F010E000130
:100A4000C56F000E0001C66F000E0001C76F0001E8
:100A50000001C869536EA50E00010001DA6F535002
:100A60000001000E4B6E0001A10E4A6E536E400E47
:100A70004C6E5350E7EC0BF0E0D1536E010E316E2B
:100A80005350000100016167D8D1536E000E316EE2
:100A90005350D3D1000E216E800E206E000E205CCC
:100AA000020E2158D8B01ED002EC00F0000EF86EF5
:100AB00020C053F021C054F0D89054325332D89013
:100AC000543253325350F76E2040E842C00BF66E5A
:100AD000940EA66EB50E24EC0EF0CDEC08F0204A74
:100AE000212ADCD7536E000E246E535024C0A9FF78
:100AF000A868040EA66ECDEC08F0B50E24EC0EF03E
:100B0000243EF4D7200EF86E000EF76E000EF66E3F
:100B1000940EA66EB50E24EC0EF08FD100010001EC
:100B20006351300AD8A405D0316687D12CEC0CF083
:100B300084D1000100016351F00AD8A403D0A6ECCF
:100B40000CF07BD10128D8B40228D8B40328D8B43B
:100B50000428D8A408D061C001F062C002F063C0CC
:100B600003F064C004F004500001000164190EE1B8
:100B7000035000010001631909E102500001000166
:100B8000621904E10150000100016119D8A455D196
:100B9000536E000E246E535037D000010001655192
:100BA000536E546A531E541E534A542A2450556E91
:100BB000566A5350552654505622400E5526000E64
:100BC00056220001600E5524D96E0001000E5620F9
:100BD000DA6E3050010D0101000EF324E16E0101C7
:100BE000010EF420E26EDFCFE7FF302A010E01266E
:100BF000000E0222000E0322000E04223050200AB2
:100C0000D8B4CDEC07F0242A000100016551245C22
:100C1000D8A0C3D712D1CDEC07F0016802680368F1
:100C200004680BD1536E070E00010001A16F5350F1
:100C300061C0A2F062C0A3F063C0A4F064C0A5F0DC
:100C400065C0A6F0200E0B6E000162C00AF0000124
:100C500061C009F0536E000E246E535059D000014C
:100C600000016351F00AD8A427D0000100016151AE
:100C70002424A96E000EA66EA68000010001655115
:100C8000536E546A531E541E534A542A2450556EB0
:100C9000566A5350552654505622400E5526000E83
:100CA00056220001A10E5524D96E0001000E5620D7
:100CB000DA6EA8CFDFFF2BD009C0F6FF0AC0F7FF1E
:100CC0000BC0F8FF000100016551536E546A531EBA
:100CD000541E534A542A2450556E566A5350552672
:100CE00054505622400E5526000E56220001A10EE9
:100CF0005524D96E0001000E5620DA6E0800F5CF9B
:100D0000DFFF010E0926000E0A22000E0B22242A04
:100D1000000100016551245CD8A0A1D7040110BFD7
:100D2000B0D00001000E4B6E0001A10E4A6E536E52
:100D3000400E4C6E5350E7EC0BF07FD042EC07F0C6
:100D40007CD0536E0C0E00010001A16F5350010EB8
:100D500000010001A36F020E0001A26F160EF66ED5
:100D6000200EF76E09000001F5CFA4F00A00000183
:100D7000F5CFA5F0060E00010001A66F200E0001C0
:100D8000A76F000E0001A86F000E0001A96F600E92
:100D900000010001AB6F0D0E0001AA6F400E0001B3
:100DA0000001AC6F000E0001AD6F000E0001AE6FD0
:100DB000000E0001AF6F00010001B06900010001E9
:100DC000B16900010001B26900010001B369536E0D
:100DD000000E00010001B46F535000010001B5691D
:100DE00000010001B669536E000E00010001B76FEB
:100DF000535000010001B86900010001B969000108
:100E00000001BA6900010001BB6900010001BC6971
:100E100000010001BD69040110BF33D00001000EC4
:100E20004B6E0001A10E4A6E536E400E4C6E535035
:100E3000E7EC0BF002D006EC00F0536E000E2F6EC4
:100E400053501FD0000100016051020AD8B467D589
:100E5000010AD8B412D6070AD8B41CD6010AD8B4ED
:100E60005DD6030AD8B4D7D6010AD8B4DBD60F0AA8
:100E7000D8B4E1D7010AD8B461D7050AD8B461D78C
:100E8000DCD71200000E0E6E200E0D6E000E0C6EE2
:100E90004B6E000E256E4B501AD00CC0F6FF0DC0E5
:100EA000F7FF0EC0F8FF2550010D0101000EF324DD
:100EB000D96E0101010EF420DA6E0800F5CFDFFFD4
:100EC000010E0C26000E0D22000E0E22252A3F0ECA
:100ED0002564E3D74B6E0D0E01010101066F4B50E7
:100EE0004B6E600E01010101076F4B50000EF86E52
:100EF000200EF76E000EF66E940EA66EB50E24EC64
:100F00000EF0000E0E6E200E0D6E3F0E0C6E4B6E30
:100F10003F0E256E4B500C504B6E0D504C6E0E50CC
:100F20004D6E4E6A110E05D0D8904E324D324C3275
:100F30004B32E82EF9D74B50F86E0DC04BF04BC03A
:100F40004CF04D6A4C50F76E0CC0F6FF2550010D69
:100F50000101000EF324D96E0101010EF420DA6EB6
:100F6000DF50F56E0C0025C04BF01F0E4B16D8A4B9
:100F700007D002EC00F0A40EA66EB50E24EC0EF025
:100F8000010E0C5E000E0D5A000E0E5A0A00256668
:100F900001D002D02506BFD7120030C04BF04C6AFA
:100FA0004D6A4E6A4B1E4C1E4D1E4E1E4B2A000EA5
:100FB0004C224D224E2201504B244F6E02504C20A9
:100FC000506E03504D20516E04504E20526E4F50C3
:100FD0000F6E50C010F051C011F0000EF86E10C02E
:100FE0004BF04BC04CF04D6A4C50F76E0FC0F6FF03
:100FF0004B6E000E2C6E4B50F6501F0B2D6EE00EFC
:10100000F6164B6E000E2E6E4B501CD02D6616D071
:101010003050D8B410D02C50010D0101000EF32433
:10102000D96E0101010EF420DA6EDF50F56E0D006D
:101030002C2A300606D0F5680D0003D0F5680D00A7
:101040002D062E2A1F0E2E64E1D70A00A40EA66ECE
:10105000B50E24EC0EF04B6E000E2E6E4B501CD0D5
:101060002E502CC04BF04C6A4B26000E4C22010136
:10107000000E4B24D96E0101010E4C20DA6E2E5069
:10108000010D0101000EF324E16E0101010EF420B7
:10109000E26EDFCFE7FF2E2A30502E5CD8B0120070
:1010A000DFD73C501F0B4A6E4A04D8A475D040507D
:1010B000D8A472D03D50060AD8B420D028D04A6EA9
:1010C000020E366E4A50080E166E4D0E156E000E4C
:1010D000456E090E11D04A6E020E366E4A50480413
:1010E000D8A404D0080E166E8A0E156E4804D8A433
:1010F0000DD0000E456E1D0E446E08D03F50210AE3
:10110000D8B4DDD7030AD8B4E6D7010A3B823C380D
:10111000E832030B4A6E4A04D8A43ED02AD0C6EC6B
:101120000EF03AD0C5EC0EF037D04A6E020E366E95
:101130004A50000E166E470E0ED04A6E020E366EE4
:101140004A503FC047F028D04A6E020E366E4A50D1
:10115000000E166E460E156E3B924A6E010E446EE0
:101160004A501AD04A6E020E366E4A503EC046F0C1
:1011700013D03D50010AD8B4D2D7030AD8B4D5D77A
:10118000010AD8B4E1D70A0AD8B4CCD7030AD8B434
:10119000D4D7010AD8B4E6D71200BBEC0EF03A66F9
:1011A00001D071D068B49DEC0EF06DB26CD068B017
:1011B0006AEC0CF068B862EC0EF0030E3A5CD8A052
:1011C00062D0506E000E356E50505AD068A65BD07B
:1011D0006CCF34F06CCF50F07C0E5016D8A446D0B3
:1011E0006CB206D00401040E1D6E0401000E05D081
:1011F0000401040E1D6E0401040E1C6E68961CC0D2
:10120000D9FF1DC0DAFFDF30E8320F0B0D0AD8A47A
:1012100036D0506E000E276E505022D020EE02F0D5
:101220001C50D9261D50DA22DECF50F0DDCF51F010
:1012300050C0D9FF51C0DAFF2750010D3C0EF324F6
:10124000E16E000EF420E26EDFCFE7FF20EE02F049
:101250001C50D9261D50DA22DE2A000EDD22272A54
:10126000070E2764DBD70FEC0DF009D06C50040A91
:10127000D8A404D06896C8EC0DF001D06896352A41
:10128000030E3564A3D7120036661CD0040E040189
:101290000401086F04010401088F4C6E040E056EF2
:1012A0004C503304D8A406D0010E70EC0DF04C6EF7
:1012B000000E05D0000E70EC0DF04C6E010E336E7A
:1012C0004C5056D03CAE25D04C6E010E376E4C5073
:1012D0004450425C45504358D8B004D042C044F01A
:1012E00043C045F0E4EC0AF04C6E480E056E4C50DD
:1012F000010E70EC0DF0000E70EC0DF00401040E08
:10130000040104010B6F0401240E040104010A6F9F
:1013100028D04C6E020E376E4C504C6E040E056E8B
:101320004C5043504210D8A404D04C6E480E056E69
:101330004C503304D8A406D0010E70EC0DF04C6E66
:10134000000E05D0000E70EC0DF04C6E010E336EE9
:101350004C5043504210D8A40BD0000E040104019D
:10136000096F480E04010401086F04010401088F8D
:1013700012003C38E832030B0009D8A460D03FD0FB
:101380004E6E010E366E4E504E6E040E3A6E0FD0FB
:1013900045EC0BF054D0DBEC0CF051D04E6E010E4E
:1013A000366E4E50000E166E480E156E14D04E500E
:1013B00046D020EC0AF043D082EC0AF040D04E6ECA
:1013C000010E366E4E504050010D490EF324156E3D
:1013D000000EF420166E3B924E6E010E446EE7D75F
:1013E0004E6E010E366E4E504050010D490EF324E4
:1013F000D96E000EF420DA6E3EC0DFFF20D03D50E3
:10140000000AD8B4D6D7010AD8B4D6D7020AD8B4BD
:10141000D3D7060AD8B4B4D7030AD8B4B9D7010AC7
:10142000D8B40DD00F0AD8B4B9D7010AD8B4B3D7FD
:10143000030AD8B4C4D7010AD8B4D2D7070A120015
:10144000000E04010401246F000E04010401256F45
:101450003FD04A6E010E366E4A503BA044D0040184
:101460000401248340D04A6E010E366E4A503BD0B0
:101470004A6E010E366E4A5040500F0B4A6E4A506B
:10148000080D000E4B6E040E4C6EF3504B26F450BC
:101490004C2240AE03D04D6A4D2A01D04D6A4D50CA
:1014A000040DF3504B26F4504C22040E4B24126EC4
:1014B000000E4C20136E12C0D9FF13C0DAFFDF50AC
:1014C0004A6E4AA410D0010E04010401246F0BD00F
:1014D0003C501F0B000AD8B4BCD7010AD8B4C3D7FC
:1014E000030AD8B4C5D73604D8A40BD00401040E1F
:1014F000166E0401240E156E3B924A6E020E446E67
:101500004A5012003E04D8A410D03C501F0B0009D2
:10151000D8A40BD04A6E010E366E4A503D50030AD5
:10152000D8A402D03B8001D03B903E664CD03C50CA
:101530001F0B020AD8A447D040500F0B0009D8B4A3
:1015400042D04A6E010E366E4A5040500F0B4A6E22
:101550004A50080D000E4B6E040E4C6EF3504B2695
:10156000F4504C2240AE03D04D6A4D2A01D04D6A52
:101570004D50040DF3504B26F4504C22040E4B24D6
:10158000126E000E4C20136E3D50030AD8A406D0F4
:1015900012C0D9FF13C0DAFF040E0ED040AE07D040
:1015A00012C0D9FF13C0DAFF400EDF6E0CD012C09C
:1015B000D9FF13C0DAFF080EDF6E12C0D9FF13C0C7
:1015C000DAFF000EDB8E12004A6E080E266E4A50BD
:1015D000080E445C000E4558D8B00ED044C026F02A
:1015E000396603D04A6E010E05D03904D8A404D060
:1015F0004A6E020E396E4A5026C009F42650445EE7
:10160000000E455A0401040E136E0401240E126EDE
:101610003BB21BD037D015C0F6FF16C0F7FFF86AF3
:1016200012C0D9FF13C0DAFF070EF76403D0080019
:10163000F55005D0F6CFE1FFF7CFE2FFE750DF6EC0
:10164000124A132A154A162A26062666E4D71CD003
:1016500015C0F6FF16C0F7FFF86A12C0D9FF13C015
:10166000DAFF070EF76403D00800F55005D0F6CF77
:10167000E1FFF7CFE2FFE750DF6E124A132A154A67
:10168000162A26062666E4D712003C50800AD8B4F3
:1016900044D04ED04A6E010E366E4A50080E166E79
:1016A000A70E156E4A6E120E446E4A5040D03E662A
:1016B0003ED04A6E010E366E4A50080E166E3B0E34
:1016C000156E000E456E290E446E31D04A6E010E25
:1016D000366E4A503E50020D010EF324F66E080E8F
:1016E000F420F76E0900F5CF15F00A00F5CF16F0DB
:1016F00015C0F6FF16C0F7FFF86A070EF76403D0AF
:101700000800F55005D0F6CFE1FFF7CFE2FFE75034
:101710004A6E4A50446E456A0AD03F50010AD8B416
:10172000B9D7030AD8B4C3D7010AD8B4CFD73B82FC
:1017300012004D6E000E386E4D5004010CBF46D0A5
:101740004C50040104010D5DD8A00DC44CF04D6E49
:10175000000E386E4D5015D03850010D04012C0E7E
:10176000F324D96E0401040EF420DA6E3850010D12
:10177000F3504A24E16EF4504B20E26EDFCFE7FFD6
:10178000382A4C50385CD8A0E7D7400E0401040139
:101790000D6F400E040104010C1704010CBD02D0B2
:1017A000010E01D0000E4D6E4D3A4D464D460401DE
:1017B00004010C514D18BF0B4D18040104010C6FAE
:1017C000040104010C87040104010C8F1200400E77
:1017D0004C6404D04D6E400E4C6E4D504D6E000E5C
:1017E0004E6E4D5015D04E50010DF3504A24D96E17
:1017F000F4504B20DA6E4E50010D04016C0EF324B0
:10180000E16E0401040EF420E26EDFCFE7FF4E2A02
:101810004C504E5CD8A0E7D74CC011F4400E0401E8
:1018200004011017040110BD02D0010E01D0000EFA
:101830004D6E4D3A4D464D460401040110514D1870
:10184000BF0B4D1804010401106F0401040110873F
:1018500004010401108F1200300EF86E000162C006
:101860004BF04BC04CF04D6A4C50F76E61C0F7FF27
:101870004B6E000E2A6E4B5026D0000100016551C0
:101880004B6E4C6A4B1E4C1E4B4A4C2A2A504D6ED6
:101890004E6A4B504D264C504E22400E4D26000EA7
:1018A0004E220001600E4D24D96E0001000E4E2024
:1018B000DA6EDF50F56E0C00C40EA66EB50E24EC89
:1018C0000EF009002A2A0001000165512A5CD8B0F7
:1018D0001200D3D74C6E030E3A6E4C50000E6B6E56
:1018E000000E686E7B0E696E000E6E6E000E716EDD
:1018F000000E726E000E736E000E746E000E756E2A
:10190000000E766E000E776E160E706E6D8C03D024
:10191000689602EC00F068B6FBD76D9C6D984C6E33
:10192000040E056E4C50000E70EC0DF04C6E010E66
:10193000336E4C504C6E000E3B6E4C504C6E000E95
:10194000486E4C50000E93EC0EF012004B6E000EE1
:101950002B6E4B5029D00001000161512B24A96E40
:101960000001000165514B6E4C6A4B1E4C1E4B4AE8
:101970004C2A2B504D6E4E6A4B504D264C504E22E9
:10198000400E4D26000E4E220001600E4D24D96EF1
:101990000001000E4E20DA6EDF50A86E040EA66E17
:1019A000B50E24EC0EF02B2A0001000165512B5CD2
:1019B000D8B01200D0D74C6E010E366E4C50000ECF
:1019C000716E000E726E000E736E000E746E000E5D
:1019D000756E000E766E000E776E4C6E000E286EE1
:1019E0004C502850D8A40CD02850010D490EF32497
:1019F000D96E000EF420DA6E000EDF6E282AF1D7C1
:101A00003EC048F0485093EC0EF03E6603D04C6E5A
:101A1000050E02D04C6E060E3A6E4C501200000EAF
:101A200004010401086F4F6E000E396E4F5004011F
:101A300000AF08D0000E04010401006F4F6E000ECD
:101A4000336E4F50040104AF08D0000E04010401AE
:101A5000046F4F6E010E336E4F504F6E000E376E97
:101A60004F504F6E000E366E4F50000E456E000EFA
:101A7000446E6D98B9EC09F0C2EC0EF044EC09F03C
:101A800012000F0EC16E938881A803D0070EC16E9D
:101A900002D018EC00F0060EF66E200EF76E09006C
:101AA000F5CF57F00900F5CF58F05850600A0D0EE9
:101AB000D8B45718D8A410D0000EF66E200EF76ECA
:101AC0000900F5CF57F00900F5CF58F05728D8B4E2
:101AD0005828D8A400EF10F018EC00F000EF00F048
:101AE000E8CF4BF04A6E080E066E4A500401040E11
:101AF000086E04011C0E076E4B660AD00401040E2A
:101B0000086E0401140E076E040E1B6E000E03D047
:101B1000040E1B6E040E1A6E1AC0D9FF1BC0DAFF2A
:101B200005C0DEFF06C0DEFF07C0DEFF08C0DEFF27
:101B30001AC0D9FF1BC0DAFFDF8E12004A6E000EFA
:101B4000386E4A501E0E716E400E040104010D6F76
:101B50000401040E040104010F6F04012C0E0401A2
:101B600004010E6F080E040104010C6F040104014E
:101B70000C8F0401040E04010401136F04016C0EA8
:101B800004010401126F400E04010401106F1200E1
:101B90003A50040AD8A40CD03EC06EFF6E50D8B4A0
:101BA00003D04B6E050E02D04B6E030E3A6E4B50B7
:101BB0003704D8A414D0E4EC0AF03950020AD8A4AF
:101BC00002D0040E06D0040108BD02D0480E01D098
:101BD000080E04010401086F04010401088F1200BB
:101BE0001806D8A0190619501810D8A415D04E0EF2
:101BF000196E000E186E060E3A5CD8B002D08C80BA
:101C00000BD08CB002D0010E01D0000E4A6E8C5069
:101C10004A18FE0B4A188C6E120001EE00F0400EBE
:101C2000EE6AE806FDE100EE60F0820EEE6AE8067C
:101C3000FDE100EE01F0490EEE6AE806FDE1000E5E
:101C4000F86E000141EF0DF0E8CF4AF0F29EC7ECCC
:101C50000EF04A50B50AD8B405D0030ED36E030077
:101C6000FED7FF00550EA76EAA0EA76EA682A6B2DB
:101C7000FED7A69412003204D8B470EC0EF0000E19
:101C80006D6E150E6F6E000E696E6D866AEC0CF04F
:101C90004D6E010E3A6E4D504D6E000E326E4D502F
:101CA00012004A6E000E2F6E4A50016802680368E7
:101CB00004684A6E000E306E4A504A6E010E316E54
:101CC0004A50120069CF29F0040E696E68986D823F
:101CD000A19AA08AADEC0EF0A09A295069121200C8
:101CE0006D92000E6D6EFF0E4B6EFF0E4A6E7EEC17
:101CF0000EF04C6E000E3A6E4C50120005D002EC05
:101D000000F04A06D8A04B064B504A10D8B4120037
:101D1000F6D76DB670EC0EF04E6E000E326E4E5071
:101D2000BBEC0EF01200E8CF4BF04B04D8A404D06B
:101D30009EEC0DF051EC0EF01200A6EC0EF06D9240
:101D4000699401D0689468A41200FCD7030E4B6E0E
:101D5000000E4A6E7EEC0EF012008C900300A1BAC9
:101D600002D0D0A6FBD7120051EC0EF08C909590CB
:101D700089EC0EF012003204D8A46DB602D03BEC10
:101D80000EF0120051EC08F01200120012001200C6
:022006000D606B
:020000040020DA
:08000000FFFFFFFFFFFFFFFF00
:020000040030CA
:0E000000240E3F1EFF8181FF0FC00FE00F4056
:00000001FF
